:020000040800F2
:10000000900A002029020008A31E0008591A0008BF
:10001000A11E0008D5050008A92100080000000065
:10002000000000000000000000000000A71E000803
:100030000107000800000000A51E0008A91E000816
:10004000430200084302000843020008430200087C
:10005000430200084302000843020008430200086C
:10006000430200084302000843020008430200085C
:10007000430200084302000843020008430200084C
:10008000430200084302000843020008430200083C
:10009000430200084302000843020008430200082C
:1000A000430200084302000843020008430200081C
:1000B000430200084302000843020008430200080C
:1000C00043020008430200084302000843020008FC
:1000D000430200089D210008430200084302000873
:1000E00043020008430200084302000843020008DC
:1000F00043020008430200084302000843020008CC
:1001000043020008430200084302000843020008BB
:1001100043020008430200084302000843020008AB
:100120004302000843020008D90500084302000802
:10013000430200084302000843020008430200088B
:10014000430200084302000843020008430200087B
:10015000430200084302000843020008430200086B
:10016000430200084302000843020008430200085B
:100170004302000843020008430200080000000098
:10018000430200084302000800F002F800F03CF8C7
:100190000AA090E8000C82448344AAF10107DA45E2
:1001A00001D100F031F8AFF2090EBAE80F0013F0F8
:1001B000010F18BFFB1A43F0010318477C2600000B
:1001C0009C260000103A24BF78C878C1FAD852079C
:1001D00024BF30C830C144BF04680C6070470000C1
:1001E0000023002400250026103A28BF78C1FBD840
:1001F000520728BF30C148BF0B6070471FB502F0DF
:1002000005FB1FBD10B510BD00F0CFF81146FFF77C
:10021000F5FF02F08DF800F0EDF803B4FFF7F2FF00
:1002200003BC00F0F5F80000094880470948004782
:10023000FEE7FEE7FEE7FEE7FEE7FEE7FEE7FEE796
:10024000FEE7FEE704480549054A064B70470000F3
:10025000611F00088901000890040020900A002016
:10026000900600209006002053EA020C00F06980FE
:100270002DE9F04B4FF00006002B1FBFB3FA83F5BA
:1002800003FA05F424FA05F65E4012BF1643B2FAEB
:1002900082F502FA05F4C5F120051EBF22FA05FC1D
:1002A00044EA0C04203556EA044C4FEA144418BFC3
:1002B000641C4FF000084FF00009904271EB030CF2
:1002C00039D3002919BFB1FA81F701FA07F6B0FA5C
:1002D00080F700FA07F6C7F120071EBF20FA07FCD7
:1002E00046EA0C062037B6FBF4FCA7EB0507103FE7
:1002F00007F01F0BCBF120060CFA0BFB2CFA06F6CD
:1003000044BFB3460026202FA4BF5E464FF0000B2B
:100310005BEA060C08BF4FF0010B19EB0B09ABFBB6
:10032000027C48EB0608C01B06FB02CC0BFB03CC8F
:1003300071EB0C01C1E70B46024641464846BDE859
:10034000F08B13B54FF000004FF00001AFF30080C9
:10035000BDE81C4070474FF0000200B513469446BC
:100360009646203922BFA0E80C50A0E80C50B1F10D
:100370002001BFF4F7AF090728BFA0E80C5048BF21
:100380000CC05DF804EB890028BF40F8042B08BFBF
:10039000704748BF20F8022B11F0804F18BF00F8BB
:1003A000012B7047704770477047754600F02CF876
:1003B000AE4605006946534620F00700854618B052
:1003C00020B5FFF73FFFBDE820404FF000064FF09B
:1003D00000074FF000084FF0000B21F00701AC467A
:1003E000ACE8C009ACE8C009ACE8C009ACE8C00999
:1003F0008D46704710B50446AFF300802046BDE837
:100400001040FFF70ABF0000004870472C0400208E
:1004100001491820ABBEFEE726000200704710B568
:100420000146806B026C12F0500F05D0026CD206B0
:1004300026D500F011FA10BD016C41F40071016481
:1004400001688A6812F0405F17D1027EAAB9CA6AB1
:1004500012F4700F02D08A6852050ED44A6822F056
:1004600020024A60016C21F480710164016CC904AE
:1004700003D4016C41F00101016400F0EBF910BDFF
:10048000806BC26CBDE810400846104710B5806B09
:1004900040210164416C41F00401416400F0DCF949
:1004A00010BD10B5806B00F0D6F910BD464910B5EF
:1004B0004A6822F440324A604A6843681A434A60F4
:1004C00001684A6822F480724A6001684A680369D8
:1004D00042EA03224A6001684A6822F040724A6098
:1004E00001684A6883681A434A6001688A6822F48E
:1004F00000628A6001688A68C3681A438A60816AF8
:100500006FF07062D14201688A6822F070628A607E
:1005100001688A680CD0836A1A438A6001688A6815
:1005200022F040528A6001688A68C36A1A4301E077
:1005300022F040528A6001688A6822F002028A60D2
:1005400001688A68037E42EA43028A6090F82010BC
:10055000002901684A680FD042F400624A600168CD
:100560004A6822F460424A6001684A68174C436A4C
:1005700004EB43331A4301E022F400624A6001684D
:10058000CA6A22F47002CA620168CA6A838B104C7C
:1005900004EB03531A43CA6201688A6822F40072AA
:1005A0008A6001688A6890F8303042EA43228A60A3
:1005B00001688A6822F480628A6001688A684069FA
:1005C00042EA8020886010BD0023014000E0FFFF68
:1005D0000000F0FFFEE70000014800F0B1BA0000A3
:1005E000CC03002001681823CAB2103AB2FBF3F220
:1005F000054B6FF30901032A9B5CC36500D9091DF4
:1006000081650846704700001628000810B50146AD
:1006100000208B698A6A4FF0C07453B1B3F5005F54
:1006200015D072B1012A0CD0022A0AD0032A09D1AE
:1006300004E01AB1012A06D0022A03D1C96AC9010D
:1006400000D5012010BDC96AA142FAD010BD002A10
:10065000F7D0012AF2D0022AF3D0032AF3D010BD3A
:1006600030B50468256825F480252560046863603A
:100670008368402B036803D099600068C26030BD76
:100680009A600068C16030BD064A10B553680649DB
:10069000064C0968B1FBF4F141435068C01A884226
:1006A000FBD310BD001000E02C00002040420F00E2
:1006B000074A10B5536807494FF47A740968B1FBCB
:1006C000F4F141435068C01A8842FBD310BD0000CA
:1006D000001000E02C00002007480168C9010AD47E
:1006E000016841F0807101600448002141600168A7
:1006F00041F0010101607047FCED00E0001000E0F6
:10070000704772B6FEE7000078B50024009490F8B8
:100710003C20012A19D0012280F83C200A680723D6
:100720000568092A13D9EE680A3A02EB420293409F
:100730009E43EE600B788A680A3B03EB43039A40C2
:100740000368DD682A43DA6010E0022078BD2E6974
:1007500002EB420293409E432E610B788A6803EBC2
:1007600043039A4003681D692A431A614A681F239C
:10077000072A13D205686E6B521E02EB8202934069
:100780009E436E630B790A885B1E92B203EB830370
:100790009A4003685D6B2A435A6327E005680D2A77
:1007A00012D22E6BD21F02EB820293409E432E6325
:1007B0000B790A88DB1F92B203EB83039A4003682C
:1007C0001D6B2A431A6311E0EE6A0D3A02EB8202B6
:1007D00093409E43EE620B790A880D3B92B203EB85
:1007E00083039A400368DD6A2A43DA62164B056880
:1007F000144A9D4206D10D68122D03D1556845F467
:100800008005556005689D4218D10B68102B01D0FA
:10081000112B13D1536843F4000353600968102966
:100820000CD10A490A4A0968B1FBF2F101EB8101D6
:10083000490000E0491E00910029FBD180F83C40AE
:10084000002078BD00230140002001402C00002042
:1008500040420F0070477047704770B504004FF07A
:10086000000503D0206C002610B107E0012070BD08
:10087000204600F01DF8666484F83C60206CC006D9
:1008800010D4206C20F4885040F0020020642046F0
:10089000FFF70CFE6664206C20F0020040F00100BF
:1008A000206400E0012584F83C60284670BD00000B
:1008B00030B587B0044614216846FFF74CFD19494E
:1008C000206888422CD118480024016841F48071C6
:1008D0000160006800F480700590134814380168C6
:1008E00041F004010160016801F004010591016813
:1008F00041F0010101600068032500F0010005904E
:100900000F20CDE9000569460294084800F08AFAF4
:100910001F20CDE9000569460294054800F082FADF
:1009200007B030BD002001404438024000080240BA
:1009300000000240F8B5044600200E46009094F8EE
:100940003C10012907D0012184F83C1021688B68F4
:10095000DB0702D011E00220F8BD8B6843F00103F1
:100960008B604049404B0968B1FBF3F101EB410159
:1009700000E0491E00910029FBD121688B68DB054E
:1009800003D58B6823F480738B6021688B68DB0749
:100990005DD0236C40F20165AB4343F48073236464
:1009A0004968490505D5216C21F4005141F4805175
:1009B0002164216CC90404D5616C21F006016164D5
:1009C00000E0606484F83C00A16B2948274DC863AF
:1009D000A16B28480864A16B2748C86421686FF0A0
:1009E000220008602068416841F080614160206811
:1009F000816841F4807181602168134632464C3130
:100A0000A06B00F0D7F968681C49C006206806D0C2
:100A1000884224D1816811F0405F13D01FE08842E2
:100A2000F8D0174A904203D1D1F80423D206F1D06E
:100A3000144A904213D1D1F8041301F01F01102978
:100A4000E8D30CE0816841F08041816007E0206CD0
:100A500040F010002064606C40F0010060640020F1
:100A6000F8BD00002C00002040420F000023014090
:100A70001F040008A30400088D04000800200140A2
:100A800000210140002201402DE9F0410446876D1C
:100A900000F0CAFA064694F835000025022806D070
:100AA0008020606584F834500120BDE8F081206822
:100AB000016821F0160101602068416921F0800180
:100AC0004161206C08B9A06C20B12068016821F058
:100AD000080101602068016821F0010101600CE05B
:100AE00000F0A2FA801B052807D9202060650320AA
:100AF00084F8350084F83450D7E720680068C007D0
:100B0000EED194F85C103F208840B860012084F852
:100B1000350084F834500020C7E790F835100229DA
:100B200003D08021416501207047052180F83510F0
:100B30000068016821F00101016000207047000099
:100B40002DE9F84304464FF00009CDF800906348C2
:100B50004FF41651A56D0068B0FBF1F72E6894F8BC
:100B60005C10082000FA01F131420FD021680A68B8
:100B700052070BD50A6822F004020A6094F85C1050
:100B80008840A860606D40F00100606594F85C10DA
:100B90004FF0010808FA01F0304208D02168496995
:100BA000090604D5A860606D40F00200606594F805
:100BB0005C1004208840304208D021680968890709
:100BC00004D5A860606D40F00400606594F85C1086
:100BD00010208840304218D021680968090714D5D0
:100BE000A86020680168490304D50068000308D59F
:100BF000A16C07E00168C90503D4016821F0080170
:100C00000160216C09B12046884794F85C102020CF
:100C10008840304231D021680968C9062DD5A860C6
:100C200094F8350005282068016806D0490347D5A7
:100C3000006800031DD4616C1CE021F01601016006
:100C40002068416921F080014161206C08B9A06CE5
:100C500020B12068016821F00801016094F85C105F
:100C60003F208840A86084F8358084F83490216D56
:100C70001FE0E16B09B120468847606D00282BD04A
:100C8000606DC00714D0052084F835002068016825
:100C900021F0010101600098401C0090B84203D887
:100CA00020680068C007F6D184F8358084F8349055
:100CB000E16C002910D001B02046BDE8F0430847A0
:100CC0000168C905D5D4016821F01001016084F8DC
:100CD000358084F83490CCE7BDE8F8832C00002000
:100CE0002DE9F041044600F09FF906465CB1022070
:100CF00084F83500002584F834502068016821F01C
:100D0000010101600DE00120BDE8F08100F08CF9E7
:100D1000801B052805D920206065032084F8350054
:100D2000F2E720680068C007F0D122681168204807
:100D30000140D4E901031843D4E90336334318438F
:100D400063691843A3691843E3691843236A184386
:100D50000843616A042903D1D4E90B1319430843FA
:100D6000106020684069666A20F0070130460E4333
:100D7000012704280CD1A06A0643E06A40B120464E
:100D8000FFF744FC20B14020606584F83570BAE775
:100D9000206846612046FFF725FC94F85C203F213F
:100DA00091408160656584F835700020ACE70000F3
:100DB0003F8010F02DE9F0410446866D90F8340034
:100DC000002501280DD0012084F8340094F83570F6
:100DD0000020012F07D084F8340002252846BDE802
:100DE000F0810220FBE7022784F835706065204619
:100DF000FFF736FC94F85C103F208840B060206814
:100E0000016841F016010160206C20B12068016882
:100E100041F0080101602068016841F001010160B2
:100E2000DCE700002DE9F84FDFF8BCA10022012526
:100E300003264FF00F090AF1040BAAF1040E00BFBC
:100E40000B6805FA02F42340A34270D10F7907F032
:100E50000307012F01D0022F16D187684FEA4208FD
:100E600006FA08FC27EA0C07D1F80CC00CFA08FCBB
:100E70004CEA070CC0F808C04768A7430C79C4F3D4
:100E8000001494403C4344600C79E443A4070AD026
:100E9000C4684FEA420C06FA0CF7BC438F6807FAA5
:100EA0000CF72743C7600C7904F00304022C12D11D
:100EB000D40800EB840CDCF820405707FF0E09FA39
:100EC00007F824EA0804D1F8108008FA07F848EA7D
:100ED0000408CCF8208004684FEA420C06FA0CF7AC
:100EE000BC430F7907F0030707FA0CF727430760A5
:100EF0004C6814F4403F70D03C4C276847F480475E
:100F00002760246822F0030704F480440094384CDE
:100F100007EB040CDCF8084897074FEA177809FA42
:100F200008F7BC43334FB84202D1002724E054E015
:100F3000314FB84201D101271EE0304FB84201D1F4
:100F4000022719E02E4FB84201D1032714E02D4F9C
:100F5000B84201D104270FE02B4FB84201D1052739
:100F60000AE02A4FB84201D1062705E0284FB842CF
:100F700001D1072700E0082707FA08F72743CCF834
:100F80000878DAF800405746D1F804C09C435FEA7D
:100F9000CC2C00D51C433C60DBF800405F46D1F808
:100FA00004C09C435FEA8C2C00D51C433C60DEF8F7
:100FB00000407746D1F804C09C435FEA8C3C00D5E2
:100FC0001C433C60084F083F3C68D1F804C09C4378
:100FD0005FEACC3C00D51C433C60521C102AFFF455
:100FE0002FAFBDE8F88F0000083C014044380240B4
:100FF00000300140000002400004024000080240AE
:10100000000C024000100240001402400018024090
:10101000001C02400069084000D0012070470AB15E
:10102000816170470904FBE7014880687047000050
:1010300020000020024881680278114481607047D6
:10104000200000200B4810B5016841F400710160D8
:10105000016841F480610160016841F480710160C0
:10106000032000F06FF80F2000F006F800F024F8DD
:10107000002010BD003C024070B50D4D04464FF4F9
:101080007A712878B1FBF0F00A490968B1FBF0F0F9
:1010900000F00CFB48B9102C07D200222146501E4C
:1010A00000F030F800206C6070BD012070BD0000C1
:1010B000200000202C0000200A4808B5016841F4F7
:1010C00080410160006800F4804000900548001FE6
:1010D000016841F080510160006800F0805000908C
:1010E00008BD000044380240002809DB00F01F0260
:1010F000012191404009800000F1E020C0F800117A
:1011000070470000F0B40E4B1B680C46C3F302237B
:10111000C3F10705042D00D90425191D072901D2A3
:10112000002300E0DB1E012606FA05F1491E2140DE
:1011300099409E40761E16403143F0BC01F035B810
:101140000CED00E0064900F0070208684FF6FF03C7
:10115000184040EA0220034A10430860704700002C
:101160000CED00E00000FA052DE9F0470E46050001
:1011700065D0DFF81481D8F80000F7B200F007005E
:10118000B04207D288F80070D8F8000000F00700DD
:10119000B04254D128683D4C810712D5400703D591
:1011A000206840F4E05020602878000703D52068CC
:1011B00040F4604020602068A96820F0F0000843F7
:1011C00020602878C0072DD0304968680839012888
:1011D00012D0022813D0032811D0096889070029EA
:1011E0002DDA216821F0030101432160FFF71CFF84
:1011F000814641F2883A0EE009688903EFE7096801
:101200008901ECE7FFF710FFA0EB0901514502D976
:101210000320BDE8F0872068696800F00C00B0EB9F
:10122000810FEFD1D8F80010404601F00701B1421C
:1012300007D90770006800F00700B04201D0012014
:10124000E7E72878400705D52068E96820F4E050F2
:10125000084320602878000706D52068296920F413
:10126000604040EAC100206000F038F82168084A78
:10127000C1F30311515CC840064908600648006884
:10128000FFF7FAFE0020C4E7003C024008380240A5
:101290001E2800082C0000202400002004480549D6
:1012A00000680968044AC1F38221515CC840704754
:1012B0002C000020083802402E2800080448054968
:1012C00000680968044AC1F34231515CC840704764
:1012D0002C000020083802402E280008154810B5C0
:1012E000006810F00C02144813D01449042A0FD0DF
:1012F000082A0ED10F4C241F2268236802F03F02F7
:101300005B0207D52068C0F38810A0FB010106E04E
:10131000084610BD2168C1F38811A1FB000100231C
:10132000FEF7A2FF2168C1F30141491C4900B0FB4F
:10133000F1F010BD083802400024F40040787D012F
:101340002DE9F84F04006ED02078DFF84C93C007E9
:10135000A9F104054AD009F104000168C1F3810133
:10136000012908D00068C0F3810002280AD1D9F809
:101370000000400206D52868800337D56068002841
:10138000E1D033E06068B0F5803F10D0B0F5A02F19
:10139000286810D020F480302860286820F480204D
:1013A00028606068A8B1FFF73FFE06460DE0286898
:1013B00040F48030F4E740F480202860F7E700BF75
:1013C000FFF732FE801B642873D828688003F7D5A6
:1013D0000CE0FFF729FE064605E000BFFFF724FEFC
:1013E000801B6428F0D828688003F7D42078DFF8C1
:1013F000AC8280074FF0000A3ED5A748001D016867
:1014000011F00C0F08D00068C0F3810002280BD146
:10141000D9F80000400207D42868800716D5E06894
:10142000012800D112E033E1E068B8B10120C8F82A
:101430000000FFF7F9FD064605E000BFFFF7F4FDE9
:10144000801B0228C0D828688007F7D52868216942
:1014500020F0F80040EAC10028600DE0C8F800A0C4
:10146000FFF7E2FD064604E0FFF7DEFD801B0228E1
:101470001FD828688007F7D42078000722D5864F28
:1014800087486169703771B101210160FFF7CCFDB8
:10149000064604E0FFF7C8FD801B022809D838681B
:1014A0008007F7D50EE0C0F800A0FFF7BDFD0646A7
:1014B00005E082E0FFF7B8FD801B02287DD8386880
:1014C0008007F7D42078400768D5DFF8CCB1002733
:1014D0000BF13C0BDBF80000C0000BD4DBF8001074
:1014E00041F08051CBF80010DBF80000012700F03C
:1014F000805000906B4E3068C00510D4306840F4C6
:1015000080703060FFF790FD009005E0FFF78CFDE4
:101510000099401A022850D83068C005F6D55E4EB2
:10152000A0686C3601280FD00528306810D020F054
:1015300001003060306820F004003060A068B8B16D
:10154000FFF772FD00900FE0306840F00100F4E713
:1015500040F004003060F7E7FFF766FD0099411A9C
:1015600041F28830814266D830688007F4D50EE0B9
:10157000FFF75AFD009007E0FFF756FD0099411A6A
:1015800041F28830814256D830688007F4D42FB1B8
:10159000DBF8001021F08051CBF80010A069C8B32F
:1015A0003D49091D0968C1F3810102294AD0022879
:1015B000504607D0C8F8600000E03CE0FFF734FD7B
:1015C00004463BE04746C8F86000FFF72DFD06469D
:1015D00005E000BFFFF728FD801B02282BD82868F4
:1015E0008001F7D4D4E907010843A16A2E4A4908CB
:1015F00002EB0141626A41EA8211084394F82C101F
:1016000040EA0161C9F8001001203866FFF70CFDBF
:10161000044606E03EE000BFFFF706FD001B02287F
:1016200009D828688001F7D534E000BFFFF7FCFC3B
:10163000001B022802D90320BDE8F88F286880012A
:10164000F4D427E00128F7D0D9F80000E26900F4CB
:10165000800191421CD1226A00F03F01914217D1D2
:1016600047F6C071626A0140B1EB821F10D1A26AD5
:101670004FF0FF3300F4403103EB5202B1EB024F65
:1016800006D194F82C1000F07060B0EB016F01D01F
:101690000120D1E70020CFE7043802400000474294
:1016A000800E4742007000400000FFFF10B5401E52
:1016B000B0F1807F01D3012010BD4FF0E0246061C4
:1016C0000F21601700F071FD0020A061072020614C
:1016D000002010BD70477047F8B5016804460868DF
:1016E000CA684B6910F00F0F4FF0000559D003F096
:1016F000010602F49077374365D0C10705D0D105C4
:1017000003D5216C41F001012164410705D5D907BA
:1017100003D0216C41F002012164810705D5D9076E
:1017200003D0216C41F004012164010707D502F0C8
:101730002001314303D0216C41F008012164216C68
:1017400000293AD0800604D5900602D5204600F044
:101750003EFC20684069216CC0F38010090700D46A
:1017600060B3204600F00CFC20684069400621D59B
:101770002068143050E8001F21F0400140E80012BA
:10178000002AF5D1A06BA8B16C490165A06BFFF7E9
:10179000C4F9002811D0A06B016D01B0BDE8F04084
:1017A000084783060FD593060DD52046BDE8F840BF
:1017B00000F00DBC2046FFF78EFFF8BD2046FFF776
:1017C0008AFF2564F8BD266B2023012E79D1C60639
:1017D00077D5D60675D508684868009048694006F0
:1017E00040D5A16B086840680004000CEAD0A28DC7
:1017F0008242E7D9E085C869B0F5807F2DD02068A6
:101800000C3050E8001F21F4807140E80012002ADB
:10181000F5D12068143050E8001F21F0010140E8A4
:101820000012002AF5D12068143050E8001F21F082
:10183000400140E80012002AF5D184F83E302563CB
:1018400020680C3050E8001F21F0100140E8001221
:10185000002AF5D1A06BFFF717F9A08DE18D401A92
:1018600081B229E0A08DE18D401A81B2E08D00287F
:10187000A8D00029A6D020680C3050E8002F22F410
:10188000907240E80026002EF5D12068143050E810
:10189000002F22F0010240E80026002EF5D184F846
:1018A0003E30256320680C3050E8002F22F01002F3
:1018B00040E80023002BF5D12046FFF70BFFF8BDD1
:1018C000FFE705062BD5150629D594F83D002128FC
:1018D000F5D1A068B0F5805F01D12069B0B1206A70
:1018E000411C2162216800784860E08C401E0004A1
:1018F000000CE084E3D12068C16821F08001C16060
:101900002068C16841F04001C160D8E7206A0088C2
:10191000C0F308004860206A801C2062E5E74006AA
:10192000CDD55006CBD5CA68204622F04002CA6009
:1019300084F83D3000F08FF8C1E70000711F000807
:1019400070B5040004D094F83D00002510B106E005
:10195000012070BD84F83C50204600F023F824207C
:1019600084F83D002068C16821F40051C160204620
:1019700000F08EFB2068016921F49041016120682C
:10198000416921F02A0141612068C16841F4005198
:10199000C1602564202084F83D0084F83E000020CA
:1019A00070BD000070B586B0064614216846FEF78B
:1019B000D2FC23493068884240D122480025016882
:1019C00041F010010160006800F0100005901D4812
:1019D0001438016841F0010101600068694600F0B7
:1019E000010005904FF4C06000900220CDE9010590
:1019F00003200390072004901348FFF713FA144CB8
:101A0000124820604FF00060C4E901054014C4E9A9
:101A100003506561A561E561256220466562FFF7B7
:101A20005FF908B1FEF76DFEB46300221146252070
:101A3000A663FFF767FB2520FFF756FB06B070BDD6
:101A4000001001404438024000000240406402405F
:101A5000CC03002070477047FEE700000449087877
:101A600020F00100087040F0080000F00DB8000000
:101A70000000002010B5012000F006F8BDE810407D
:101A800040F6B830FEF700BE10B5044600224FF411
:101A900080610648FFF7C3FA200900F009F804F056
:101AA0000F00BDE8104000F003B80000000C024039
:101AB00070B504461D4D00074FF4004101D50122C9
:101AC00000E000222846FFF7AAFA60074FF48041A1
:101AD00001D5012200E000222846FFF7A0FAA00766
:101AE0004FF4005101D5012200E000222846FFF703
:101AF00096FAE0074FF4805101D0012200E0002265
:101B00002846FFF78CFA0122D40221462846FFF727
:101B100086FA1420FEF7B8FD002221462846FFF77A
:101B20007EFABDE870401420FEF7AEBD000C024006
:101B300008B509A212680092084AD3788B4200D8EF
:101B40000021507191711DF801100844C0B240F09D
:101B50008000FFF799FF08BD0040145400000020EA
:101B600010B50446012291020548FFF758FA2009F2
:101B7000FFF79EFF04F00F00BDE81040FFF798BF8D
:101B8000000C02400449087840F00400087040F05E
:101B90000800FFF779BF00000000002070B50D4677
:101BA0000646FEF799FD00F041F84AF6C870FEF7C8
:101BB0006BFD1D4C0020012DE57026716071A07138
:101BC000607001D9082060700320FFF771FF41F2B7
:101BD00094152846FEF758FD0320FFF769FF2846B5
:101BE000FEF752FD0320FFF763FF2846FEF74CFD8A
:101BF0000220FFF75DFF6420FEF746FD607840F0AD
:101C00002000FFF741FF04202070FFF7BBFFFFF724
:101C100031FF0220A0700620FFF736FF2846BDE8FE
:101C20007040FEF731BD00000000002030B585B0E7
:101C300014216846FEF78FFB4FF44C4000900125BD
:101C40000024CDE90154694617480394FFF7EAF8E8
:101C50004FF440500090CDE9015469461348039475
:101C6000FFF7E0F8124C0022A9022046FFF7D7F94F
:101C70000022E1142046FFF7D2F90022A1142046E9
:101C8000FFF7CDF9002269032046FFF7C8F90022CB
:101C9000A9032046FFF7C3F90022E9032046FFF716
:101CA000BEF905B030BD000000040240000802404B
:101CB000000C024070B51546FFF73AFF134C16E0D2
:101CC00060792179884207D300206071A179491C8D
:101CD000C9B2A171FFF72CFF28780A280BD00D2874
:101CE0000FD0FFF73DFF6079401C60716D1C2878B4
:101CF0000028E5D170BDA079401CC1B2A171607906
:101D000001E0A1790020FFF713FFEFE700000020BA
:101D10007FB500241548009401940294124903945D
:101D200001604FF48031C0E901140461047680F849
:101D300020400F49C0E90A140125C561C46080F83C
:101D400030404561FEF789FD08B172B6FEE70A2012
:101D5000CDE90005694602940448FEF7D5FC002849
:101D600001D072B6FEE77FBD0020014000030020D5
:101D70000100000F2DE9F04786B014216846FEF7F8
:101D8000EAFA41480024016841F0800101600168DD
:101D900001F080010591016841F0040101600168D2
:101DA00001F004010591016841F001010160016841
:101DB00001F001010591016841F010010160016825
:101DC00001F010010591016841F00801016001680E
:101DD00001F008010591016841F00201016000680D
:101DE000DFF8A88000F0020047F683750590002216
:101DF00029464046FFF713F9DFF894904FF4007638
:101E0000002231464846FFF70AF9DFF888A04FF470
:101E10007A77002239465046FFF701F900950125EF
:101E2000CDE90154694640460394FEF7FBFF009656
:101E3000CDE90154694648460394FEF7F3FF4FF499
:101E40007840CDE90004694648460294FEF7EAFF6F
:101E50004FF47070CDE9000469460F480294FEF714
:101E6000E1FF2802CDE9000469460C480294FEF720
:101E7000D9FF0097CDE90154694650460394FEF717
:101E8000D1FF06B0BDE8F0873038024000100240B4
:101E9000000C024000040240000802400000024022
:101EA000FEE7FEE77047704710B5FFF7C3F8064C32
:101EB0002068401C2060642805DB00F0AFF900F0CA
:101EC00013FA0020206010BD1C00002030B593B034
:101ED00030216846FEF73FFA14210CA8FEF73BFAC2
:101EE0001D480025016841F080510160006800F044
:101EF000805011901948016841F4804101600068E8
:101F0000022400F4804011900120039010200490DE
:101F1000009406940820CDE90750A820CDE90904D3
:101F200004200B906846FFF70BFA08B172B6FEE783
:101F30000CA90F2081E831004FF4A0500F904FF40E
:101F40008050109005210CA8FFF70EF9002801D051
:101F500072B6FEE713B030BD40380240007000405A
:101F60000248016841F470010160704788ED00E0AB
:101F700010B5806B0021C185C184FFF7ACFB10BD9B
:101F800001680C3151E8002F22F4907241E80023DF
:101F9000002BF5D10168143151E8002F22F0010225
:101FA00041E80023002BF5D1016B012909D101681B
:101FB0000C3151E8002F22F0100241E80023002BE1
:101FC000F5D1202180F83E1000210163704708B54B
:101FD00090F83E10222901D0022008BD82684FF4FB
:101FE00080539A4201D1016921B1816A9A421BD082
:101FF0004AB10AE00268816A5268C2F308020A80A4
:10200000816A891C08E0026972B10268526802F0B4
:102010007F020A70816A491C8162C18D491E0904D0
:10202000090CC18503D019E002685268F1E7016824
:10203000CA6822F02002CA600168CA6822F480726D
:10204000CA6001684A6922F001024A61202180F8D1
:102050003E10016B012903D0FFF7FCFC002008BDF6
:102060000021016301680C3151E8002F22F01002B9
:1020700041E80023002BF5D101680A68D20602D599
:102080000A6849680091818DFFF724FBE6E70000AC
:1020900070B5044600680169E26821F440511143BB
:1020A00001612169A068E26908436169114308433D
:1020B0002168CA6849F20C639A430243CA602068E7
:1020C0004169A26921F4407111434161314920689D
:1020D000884202D03049884202D1FFF7EFF801E090
:1020E000FFF7DCF8E2690023192164253226B2F5F6
:1020F000004F626828D0A0FB0101930F9200FEF709
:10210000B3F80146B0FBF5F06FF01802504301EB55
:10211000800006EB0010B0FBF5F000F0F002B1FB20
:10212000F5F002EB0012B1FBF5F06FF01803584325
:1021300001EB800006EB0010B0FBF5F000F00F00A3
:1021400021681044886070BDA0FB010192185B41BA
:10215000FEF78AF80146B0FBF5F00201B1FBF5F09D
:102160006FF01803584301EB800006EBC000B0FB92
:10217000F5F000F0F80002EB4002B1FBF5F0584337
:1021800001EB800006EBC000B0FBF5F000F00700AB
:10219000D6E7000000100140001401400148FFF79D
:1021A0009BBA000048030020FEE70907090E00283B
:1021B00004DB00F1E02080F80014704700F00F000D
:1021C00000F1E02080F8141D704710B51446FEF7AA
:1021D00021FF002803D12046FEF76AFA002010BD37
:1021E00010B5044600224FF400710448FEF717FFB3
:1021F0002046BDE81040FEF75BBA00000000024038
:1022000010B50446012251020348FEF708FF20469C
:10221000BDE81040FEF74CBA0000024030B5154C46
:10222000154B9FED162ADFED162A164D002200BF32
:1022300054F8220000EE100A1046B8EE400A00F0F2
:102240005FF883ED040AD3ED010A05EB8200521C0E
:1022500060EE800A102A80EE820A83ED030A93ED75
:10226000001AC0EE010A20EEA20A80ED000ADFDBB0
:1022700030BD00008C0300200800002000F07F45E6
:1022800000007A443002002070B54FF4FA744FF425
:102290008075224629460C48FFF797FF002812D187
:1022A000FFF7E8FB094E002109A20846FFF702FDEF
:1022B000224629463046FFF788FF0028F3D1BDE8C3
:1022C0007040FFF7D7BB70BD00000240000802401D
:1022D00054524F55424C452033204D41494E5445B0
:1022E0004E414E434500000010B500F037FA00F0B3
:1022F000EDF900F09BF8BDE81040FFF7C5BF000006
:102300000A49B0EE401A01EB80009FED070AD0EDBC
:10231000001ADFED040A21EE800A00EE810A80ED4A
:10232000000A7047C520303ECFF7533FF001002030
:1023300008B5FEF787FEFFF7C9FDFFF71BFD28482C
:102340000024016841F4800101600068224600F425
:102350008000009021463A20FEF7D4FE3A20FEF796
:10236000C3FEFFF7D5FC20481E4901604FF4E13160
:10237000C0E901140C21C460C0E904418461C46156
:10238000FFF7DEFA08B172B6FEE7174908224431BA
:10239000A1F18C00FEF7CEFA02212820FFF7FEFB08
:1023A00000210846FFF7C4FB002110A20846FFF7F2
:1023B00081FC14A201210020FFF77CFC4FF47A700D
:1023C000FEF776F9FFF756FB002108A20846FFF753
:1023D00071FC11A201210020FFF76CFCF4E7000062
:1023E0003038024000100140480300203D3D3D3D93
:1023F0003E204D5554414E5420332E30203C3D3D1F
:102400003D3D00002020203D3D3E2057454C434FA0
:102410004D45203C3D3D00003D3D3E20535620555E
:102420004E444950203C3D3D000000002DE9F04164
:102430001F48017871B9417861B9817851B9C17883
:1024400041B9017931B9417921B9817911B9C0799D
:1024500000282BD0174C4FF4FA754FF480762A469B
:1024600031462046FFF7B1FE00281FD1112000F0B1
:1024700029F80A20FFF7B4FEFFF7FCFA00210EA2AC
:102480000846FFF717FCDFF8388067150022394649
:102490004046FEF7C4FD2A4631462046FFF795FE2A
:1024A0000028F3D1BDE8F041FFF7E4BABDE8F081C0
:1024B00030000020000802404D5554450000000047
:1024C000000002402DE9F047DFF8F0803C4D002489
:1024D000E0B3012842D03B4E4FF40077022844D0AD
:1024E0004FF48079032847D004284CD0052851D0D8
:1024F000062856D0072822465AD002214046FEF729
:102500008EFD002201214046FEF789FD002239465A
:102510003046FEF784FD002249463046FEF77FFD37
:10252000002280213046FEF77AFD0022402130460D
:10253000FEF775FD002220213046FEF770FD304683
:10254000BDE8F04700220821FEF769BD0022022104
:102550004046FEF764FD2C70BDE8F08700220121A3
:102560004046FEF75CFD6C70F6E7002239463046C7
:10257000FEF755FDAC70EFE7002249463046FEF706
:102580004EFDEC70E8E7002280213046FEF747FD63
:102590002C71E1E7002240213046FEF740FD6C71CE
:1025A000DAE7002220213046FEF739FDAC71D3E78F
:1025B00008213046FEF733FDEC71CDE700100240F4
:1025C00030000020000402402DE9F047DFF8F080E1
:1025D0003C4D0124D8B3012841D067023A4E02286D
:1025E00044D04FF48079032847D004284CD00528E4
:1025F00051D0062856D0072822465AD002214046FC
:10260000FEF70DFD012211464046FEF708FD0122AE
:1026100039463046FEF703FD012249463046FEF7B3
:10262000FEFC012280213046FEF7F9FC0122402108
:102630003046FEF7F4FC012220213046FEF7EFFC85
:102640003046BDE8F04701220821FEF7E8BC012230
:1026500002214046FEF7E3FC2C70BDE8F087012222
:1026600011464046FEF7DBFC6C70F6E70122394666
:102670003046FEF7D4FCAC70EFE701224946304605
:10268000FEF7CDFCEC70E8E7012280213046FEF732
:10269000C6FC2C71E1E7012240213046FEF7BFFC69
:1026A0006C71DAE7012220213046FEF7B8FCAC71EC
:1026B000D3E708213046FEF7B2FCEC71CDE700000D
:1026C00000100240300000200004024070B51E4D92
:1026D000287870B9687860B9A87850B9E87840B9B6
:1026E000287930B9687920B9A87910B9E879002833
:1026F00028D04FF4FA724FF480511448FFF765FD6B
:1027000000281FD1FFF7B6F9FFF7A8F9002110A2A2
:102710000846FFF7CFFA1120FFF7D4FE6420FFF739
:102720005FFD4EF66020FDF7C3FFFFF797F9FFF757
:10273000A1F90024285D10B12046FFF745FF641C75
:10274000082CF7DD70BD000030000020000C0240B6
:1027500042757A7A6572204F666600002DE9F04175
:102760004FF4FA7422464FF400611B48FFF72DFD29
:1027700000282ED1FFF77EF9DFF860804FF6FF7555
:1027800066004FF48077002115A20846FFF792FA01
:102790002846FFF719FF3046FFF732FD224639463B
:1027A0004046FFF712FD0028EDD1FFF763F96420E2
:1027B000FDF77EFF002111A20846FFF77BFA0020FB
:1027C000FFF70EFD1220FFF77DFEBDE8F041FFF799
:1027D00051B9BDE8F0810000000C02400008024041
:1027E0002020202020202020202020544553542029
:1027F00046554E4354494F4E210000005245534523
:10280000542046554E4354494F4E00004FF04070FF
:10281000E1EE100A704700061016000610160000C0
:102820000000000000000102030406070809000080
:1028300000000102030400005828000800000020E6
:1028400030000000C4010008882800083000002083
:10285000600A0000E0010008000000000000000025
:1028600033335340333353402C0100000000000049
:102870000000000000000000010000001000000047
:08288000000000000024F40038
:040000050800018965
:00000001FF
